:100000006F00706F13000000130000001300000069
:100010001300000013000000130000001300000094
:100020001300000013000000130000001300000084
:08003000130000007300100032
:100038006FF09FFC000000006F00F0356F00B03AD1
:1000480000000000000000000000000000000000A8
:100058000000000000000000000000000000000098
:100068006F60D01A000000006F00000F0000000051
:100078006F00F0396FF05FF86F00703E6F00503F0F
:100088006F0030406F0010416F0060226F006028E1
:100098006F0060306F0060366F00603C6F00B040EA
:1000A8006F0070456F00304A6F00D0266F00B04E69
:1000B8006F0070536F0030586F00205A0000000026
:1000C8000000000000000000000000006F00603F1A
:1000D8006F00A05D6F00A0646F00606B6F00A0747C
:1000E8006F0070016F00F0076F00B00E6FF0DFF067
:1000F8006FF09FF06FF05FF06FF01FF06FF0DFEFC1
:100108006FF09FEF6F60B0336F00B0136F00901BFC
:100118006F0080476FF05FEE6FF01FEE6FF0DFED5E
:1001280000000000000000000000000000000000C7
:080138000000000000000000BF
:1001400073750430828073100530828097520020CE
:10015000938242EB739002340321050095A00100C5
:10016000197106C212C816CA1ACC1ECE22D026D2C7
:100170002AD42ED632D836DA3ADC3EDEC2C0C6C227
:10018000CAC4CEC6D2C8D6CADACCDECEE2D0E6D257
:10019000EAD4EED6F2D8F6DAFADCFEDEF32200304C
:1001A00016C483A2018C23A02200F322103416C0AF
:1001B000EF50101883A2418C03A1020011A001008E
:1001C000824273901234A2427390023092404242B3
:1001D000D2426243F243025492542255B2554256DF
:1001E000D2566257F257064896482649B649464ABB
:1001F000D64A664BF64B065C965C265DB65D465E5F
:10020000D65E665FF65F09617300203000003D43F3
:100210002A876373C3029377F700BDEFADE593764A
:1002200006FF3D8ABA960CC34CC30CC74CC74107A6
:10023000E36BD7FE11E28280B306C3408A069702C1
:10024000000096966780A6002307B700A306B700B4
:100250002306B700A305B7002305B700A304B70022
:100260002304B700A303B7002303B700A302B7001A
:100270002302B700A301B7002301B700A300B70012
:100280002300B700828093F5F50F93968500D58DF6
:1002900093960501D58D61B79396270097020000CC
:1002A00096968682E78086FA9680C1171D8F3E96C5
:1002B000E374C3F8A5B7397106DE16DC1ADA1ED866
:1002C0002AD62ED432D236D03ACE3ECC42CA46C8F6
:1002D00072C676C47AC27EC0EF40C0380545EF10C2
:1002E000E00B85476307F502EF40003AF250E25217
:1002F0005253C2533255A255125682567247E247A4
:100300005248C248324EA24E124F824F21617300B2
:1003100020300545EF10400AC1BF397106DE16DCFA
:100320001ADA1ED82AD62ED432D236D03ACE3ECCC5
:1003300042CA46C872C676C47AC27EC0EF408032D6
:100340000945EF10A00585476307F502EF40C0336C
:10035000F250E2525253C2533255A25512568256AF
:100360007247E2475248C248324EA24E124F824F65
:10037000216173002030B707002083A7C70F09470A
:100380006389E70005476389E7000945EF10C0026C
:1003900075BFEF20D01FD5BFEF20F010FDB739712A
:1003A00006DE16DC1ADA1ED82AD62ED432D236D081
:1003B0003ACE3ECC42CA46C872C676C47AC27EC025
:1003C000EF40402A1145EF00707D85476307F50235
:1003D000EF40802BF250E2525253C2533255A25595
:1003E000125682567247E2475248C248324EA24ED7
:1003F000124F824F2161730020301145EF00D07BF6
:10040000C1BF397106DE16DC1ADA1ED82AD62ED400
:1004100032D236D03ACE3ECC42CA46C872C676C434
:100420007AC27EC0EF4000242145EF003077854737
:100430006307F502EF404025F250E2525253C25397
:100440003255A255125682567247E2475248C24868
:10045000324EA24E124F824F21617300203021454F
:10046000EF009075C1BF397106DE16DC1ADA1ED8AE
:100470002AD62ED432D236D03ACE3ECC42CA46C844
:1004800072C676C47AC27EC0EF40C01D4145EF00FF
:10049000F07085476307F502EF40001FF250E2520B
:1004A0005253C2533255A255125682567247E247F2
:1004B0005248C248324EA24E124F824F2161730001
:1004C00020304145EF00506FC1BF397106DE16DCA8
:1004D0001ADA1ED82AD62ED432D236D03ACE3ECC14
:1004E00042CA46C872C676C47AC27EC0EF40801740
:1004F00013050020EF00906A85476303F504130598
:100500000010EF00B06985476305F5061305000884
:10051000EF00D06885476303F50613050004EF007C
:10052000F06785476301F50613050002EF001067C9
:100530008547631BF50013050002EF00F06729A053
:1005400013050020EF005067EF400014F250E25214
:100550005253C2533255A255125682567247E24741
:100560005248C248324EA24E124F824F2161730050
:10057000203013050010EF003064F9B713050008B0
:10058000EF009063D1B713050004EF00F0626DBF78
:10059000397106DE16DC1ADA1ED82AD62ED432D2EB
:1005A00036D03ACE3ECC42CA46C872C676C47AC26B
:1005B0007EC0EF40200B2165EF00505E8547630849
:1005C000F5041165EF00905D8547630AF50609653E
:1005D000EF00D05C85476308F5060565EF00105C09
:1005E00085476306F506056513050580EF00105B7A
:1005F00085476302F50613050040EF00305A854732
:10060000631AF50013050040EF00105B21A021657F
:10061000EF00905AEF404007F250E2525253C2535B
:100620003255A255125682567247E2475248C24886
:10063000324EA24E124F824F21617300203011655D
:10064000EF009057C1BF0965EF001057E1B705658E
:10065000EF009056C1B7056513050580EF00D05532
:1006600055BF397106DE16DC1ADA1ED82AD62ED40A
:1006700032D236D03ACE3ECC42CA46C872C676C4D2
:100680007AC27EC0EF30107EEF400000F250E2529E
:100690005253C2533255A255125682567247E24700
:1006A0005248C248324EA24E124F824F216173000F
:1006B0002030397106DE16DC1ADA1ED82AD62ED47E
:1006C00032D236D03ACE3ECC42CA46C872C676C482
:1006D0007AC27EC0EF3010799305000837350140AB
:1006E000130505C0EF10C06C15E5EF30F079F2503E
:1006F000E2525253C2533255A25512568256724795
:10070000E2475248C248324EA24E124F824F2161F8
:10071000730020309305000837350140130505C0EC
:10072000EF10C06AD9B7397106DE16DC1ADA1ED8A6
:100730002AD62ED432D236D03ACE3ECC42CA46C881
:1007400072C676C47AC27EC0EF30D0718545373527
:100750000140130505C0EF10A06515E5EF30D0721C
:10076000F250E2525253C2533255A255125682569B
:100770007247E2475248C248324EA24E124F824F51
:10078000216173002030854537350140130505C0D0
:10079000EF10C063E1B7397106DE16DC1ADA1ED835
:1007A0002AD62ED432D236D03ACE3ECC42CA46C811
:1007B00072C676C47AC27EC0EF30D06A9305000458
:1007C00037350140130505C0EF10805E1DED930520
:1007D000000237350140130505C0EF10605D1DEDC7
:1007E000EF30906AF250E2525253C2533255A25542
:1007F000125682567247E2475248C248324EA24EC3
:10080000124F824F21617300203093050004373569
:100810000140130505C0EF10605B55BF9305000252
:1008200037350140130505C0EF10405A55BF3971E7
:1008300006DE16DC1ADA1ED82AD62ED432D236D0EC
:100840003ACE3ECC42CA46C872C676C47AC27EC090
:10085000EF305061894537350140130505C0EF1071
:10086000205531ED914537350140130505C0EF1096
:10087000205431EDA14537350140130505C0EF1077
:10088000205331EDC14537350140130505C0EF1048
:10089000205231EDEF30505FF250E2525253C253CA
:1008A0003255A255125682567247E2475248C24804
:1008B000324EA24E124F824F216173002030894583
:1008C00037350140130505C0EF10405061BF914519
:1008D00037350140130505C0EF10404F61BFA145FA
:1008E00037350140130505C0EF10404E61BFC145CB
:1008F00037350140130505C0EF10404D61BF397118
:1009000006DE16DC1ADA1ED82AD62ED432D236D01B
:100910003ACE3ECC42CA46C872C676C47AC27EC0BF
:10092000EF305054854537050040EF10604815E51D
:10093000EF309055F250E2525253C2533255A25505
:10094000125682567247E2475248C248324EA24E71
:10095000124F824F216173002030854537050040DA
:10096000EF10C046EF20E037E1B7397106DE16DC44
:100970001ADA1ED82AD62ED432D236D03ACE3ECC6F
:1009800042CA46C872C676C47AC27EC0EF30904D65
:1009900085453705004013050540EF10604115E51A
:1009A000EF30904EF250E2525253C2533255A2559C
:1009B000125682567247E2475248C248324EA24E01
:1009C000124F824F2161730020308545370500406A
:1009D00013050540EF10803FE1B7397106DE16DCE4
:1009E0001ADA1ED82AD62ED432D236D03ACE3ECCFF
:1009F00042CA46C872C676C47AC27EC0EF309046FC
:100A000085453715004013050580EF10603A15E560
:100A1000EF309047F250E2525253C2533255A25532
:100A2000125682567247E2475248C248324EA24E90
:100A3000124F824F216173002030854537150040E9
:100A400013050580EF108038E1B7397106DE16DC3A
:100A50001ADA1ED82AD62ED432D236D03ACE3ECC8E
:100A600042CA46C872C676C47AC27EC0EF30903F92
:100A7000930550523745004013050540EF1040578D
:100A800019C9B707002083A7C70F0947638AE70280
:100A90000547638AE702EF30303FF250E25252538B
:100AA000C2533255A255125682567247E2475248F7
:100AB000C248324EA24E124F824F21617300203045
:100AC000EF20E027C9BFEF103077F1B7397106DEAC
:100AD00016DC1ADA1ED82AD62ED432D236D03ACE26
:100AE0003ECC42CA46C872C676C47AC27EC0EF30D7
:100AF0007037EF307039F250E2525253C2533255D0
:100B0000A255125682567247E2475248C248324EA8
:100B1000A24E124F824F216173002030397106DEE0
:100B200016DC1ADA1ED82AD62ED432D236D03ACED5
:100B30003ECC42CA46C872C676C47AC27EC0EF3086
:100B400070320965EF00C07785476307F502EF3023
:100B5000B033F250E2525253C2533255A25512569C
:100B600082567247E2475248C248324EA24E124F56
:100B7000824F2161730020300965EF006076B7076E
:100B8000002083A7C70F09476388E7000547E39064
:100B9000E7FCEF20A01265BFEF20C0204DBF3971E8
:100BA00006DE16DC1ADA1ED82AD62ED432D236D079
:100BB0003ACE3ECC42CA46C872C676C47AC27EC01D
:100BC000EF30502AEF30502CF250E2525253C253C1
:100BD0003255A255125682567247E2475248C248D1
:100BE000324EA24E124F824F216173002030397174
:100BF00006DE16DC1ADA1ED82AD62ED432D236D029
:100C00003ACE3ECC42CA46C872C676C47AC27EC0CC
:100C1000EF30502501A0397106DE16DC1ADA1ED835
:100C20002AD62ED432D236D03ACE3ECC42CA46C88C
:100C300072C676C47AC27EC0EF30D022EF30D024A4
:100C4000F250E2525253C2533255A25512568256B6
:100C50007247E2475248C248324EA24E124F824F6C
:100C6000216173002030411106C6EF30B01FEF3014
:100C7000B021B24041018280411106C6EF30901E82
:100C8000EF309020B24041018280411106C6EF3022
:100C9000701DEF30701FB24041018280411106C6C5
:100CA000EF30501CEF30501EB2404101828039714C
:100CB00006DE16DC1ADA1ED82AD62ED432D236D068
:100CC0003ACE3ECC42CA46C872C676C47AC27EC00C
:100CD000EF305019EF30501BF250E2525253C253D2
:100CE0003255A255125682567247E2475248C248C0
:100CF000324EA24E124F824F216173002030397163
:100D000006DE16DC1ADA1ED82AD62ED432D236D017
:100D10003ACE3ECC42CA46C872C676C47AC27EC0BB
:100D2000EF305014EF305016F250E2525253C2538B
:100D30003255A255125682567247E2475248C2486F
:100D4000324EA24E124F824F216173002030397112
:100D500006DE16DC1ADA1ED82AD62ED432D236D0C7
:100D60003ACE3ECC42CA46C872C676C47AC27EC06B
:100D7000EF30500FEF305011F250E2525253C25345
:100D80003255A255125682567247E2475248C2481F
:100D9000324EA24E124F824F2161730020303971C2
:100DA00006DE16DC1ADA1ED82AD62ED432D236D077
:100DB0003ACE3ECC42CA46C872C676C47AC27EC01B
:100DC000EF30500AEF30500CF250E2525253C253FF
:100DD0003255A255125682567247E2475248C248CF
:100DE000324EA24E124F824F216173002030397172
:100DF00006DE16DC1ADA1ED82AD62ED432D236D027
:100E00003ACE3ECC42CA46C872C676C47AC27EC0CA
:100E1000EF305005EF305007F250E2525253C253B8
:100E20003255A255125682567247E2475248C2487E
:100E3000324EA24E124F824F216173002030397121
:100E400006DE16DC1ADA1ED82AD62ED432D236D0D6
:100E50003ACE3ECC42CA46C872C676C47AC27EC07A
:100E6000EF305000EF305002F250E2525253C25372
:100E70003255A255125682567247E2475248C2482E
:100E8000324EA24E124F824F216173002030411129
:100E900006C622C40146814537D50000130585E505
:100EA000EF30602A23A4A184EF107058EF10006384
:100EB000EF705069EF70C06DEF70C00AEF60D079CD
:100EC000EF60506DEF70C0061306002893052003F5
:100ED00013050010EF20807FEF80A060FD5503A573
:100EE0008184EF3040292945EF401010EF60401F0A
:100EF000EF602020E5B797010020938121A01741E2
:100F000000201301211017D500001305A52A97F51D
:100F1000FF1F9385250F1386818463FAC500832202
:100F2000050023A0550011059105E3EAC5FE1385D0
:100F30008184973500209385653C6377B500232035
:100F400005001105E36DB5FE9302800873A0023021
:100F500097F2FFFF9382820E93E212007390523059
:100F6000EF50105601458145EF30000A97320000DE
:100F70009382C2097390123473002030B727014066
:100F8000938707406303F5008280411106C68545BB
:100F900013050020D12F814513050020F127B24011
:100FA000410182805C413707F1FF1307F7EF7D8F26
:100FB000DC41A2079441D58FD98F5CC11C4537F71E
:100FC000F1FF1307D77F7D8F9C49D445D58F94457A
:100FD0008606D58FD98F1CC55C55370710FF7D1746
:100FE0007D8F83C74501FD1793F7F70FD207D98F80
:100FF0005CD5828091C51C4593E717001CC5828093
:101000001C45F99B1CC582801C4593E787001CC5C5
:10101000828008450D81058982801C4593E7470041
:101020001CC582800845098105898280A54763F730
:10103000B7048328C500138865FF1317180042976B
:101040009D47B397E70093C7F7FFB3F71701B39630
:10105000E600DD8E54C5994763E3C70458597D16F1
:10106000931726003E96FD47B397C70093C7F7FF37
:10107000F98F3396C5005D8E50D982800328050113
:10108000139715002E979D47B397E70093C7F7FF77
:10109000B3F70701B396E600DD8E14C96DBFB14703
:1010A00063E3C7021459130796FF131627003A96F5
:1010B000FD47B397C70093C7F7FFF58F3396C50079
:1010C0005D8E10D9828054554D16131726003A961E
:1010D000FD47B397C70093C7F7FFF58FB395C500DA
:1010E000DD8D4CD582801C4141677917F98F1CC179
:1010F00023200500232205002324050023260500C4
:10110000B7070240A1076304F508B7070240F107DB
:101110006306F508B7070240938707036307F508DE
:10112000B707024093874704630AF508B7070240F0
:1011300093878705630BF508B70702409387C706B7
:10114000630DF508B707024093870708630FF5089A
:10115000B7070240938787406301F50AB70702404B
:101160009387C7416304F50AB70702409387074393
:101170006307F50AB707024093874744630CF50AF3
:10118000B707024093878745630FF50A82803707C8
:1011900002405C4393E7F7005CC38280370702405C
:1011A0005C4393E7070F5CC38280B7060240DC42D2
:1011B0000567130707F0D98FDCC28280370702402A
:1011C0005C43BD66D58F5CC38280370702405C43B9
:1011D000B7060F00D58F5CC38280370702405C439F
:1011E000B706F000D58F5CC38280370702405C43AE
:1011F000B706000FD58F5CC38280B707024003A7F4
:1012000047401367F70023A2E7408280B7070240F8
:1012100003A747401367070F23A2E7408280B70761
:10122000024003A747408566938606F0558F23A2A8
:10123000E7408280B707024003A74740BD66558F4D
:1012400023A2E7408280B707024003A74740B706C2
:101250000F00558F23A2E74015BF1C4161773D0762
:101260007D8F9C459451D58F9449D58FD449D58F86
:10127000944DD58FD44DD58FD451D58F9455D58FCE
:10128000D98F1CC1DC455CC19C411CC5DC415CC5DF
:10129000828091C51C4193E717001CC182801C41CC
:1012A00041677917F98F1CC1828009C61C41DD8D09
:1012B0000CC182801C4193C5F5FFFD8D0CC182805D
:1012C0009317350063DA0700B707024083A707408A
:1012D0007D8D3335A0008280B70702409C43CDBF8F
:1012E0009317350063D70700B707024023A2A74032
:1012F0008280B7070240C8C382805C45D9C3B70665
:1013000001409387064003A6064018411347F7FFA4
:10131000718F23A0E64083A6464018411347F7FF8C
:10132000758FD8C358413E9714431041D18E14C3D2
:10133000944718411347F7FF758F98C7D447184152
:101340001347F7FF758FD8C71C454147638CE700EB
:101350003707014013070740BA9798431441558F48
:1013600098C38280B707014003A787401441558F77
:1013700023A4E74003A7C7401441558F23A6E740A5
:1013800082805841B7070140938707403E97144336
:101390001C4193C7F7FFF58F1CC3828037070140BC
:1013A0008327074003274741698F09C77D8D333560
:1013B000A000828001458280B707014023AAA74090
:1013C00082809C4593F8F700C18B81C7DC41B3E86C
:1013D000F80083C70500A9CB10418147054E3D4F5A
:1013E000930E8002930F8004214329A054C98507DE
:1013F000638B6702B316FE0003D70500758FE39871
:10140000E6FE139727003318EF001348F8FF3376F2
:10141000C8003397E800598E9845E309D7FDE318D3
:10142000F7FD14C9E9B710C103D705009307F00F02
:1014300063FDE7045041A147054EBD4F130F8002E5
:10144000930E8004414331A054C915A88507638DCC
:101450006702B316FE0003D70500758FE398E6FE1A
:101460001397270001173398EF001348F8FF3376DE
:10147000C8003397E800598E9845E307E7FD984583
:10148000E316D7FD14C9D9B750C1828019C20CC95F
:1014900082804CC982802A8663400504B7070140D8
:1014A000DC4393160501C182370730003378E5002D
:1014B0006308E8021317B500635C070413570501BE
:1014C0001378F7000D47331707011347F7FF7D8F98
:1014D000B707000FD98F0DA0B7070140DC4FD1B778
:1014E000370700F17D17F98FB708014003A84800BE
:1014F0003377E80023A2E80091C5558112053395A2
:10150000A600C98F63420602370701405CC3828090
:101510001357550112073397E6001347F7FF7D8FE6
:10152000B707000FD98FC9BF370701405CCF828052
:1015300093F735008A0713F7C50FB7050140BA9531
:1015400094453D473317F7001347F7FF758F98C54C
:1015500098453315F500598D88C58280B7E700E0BE
:10156000BC47898B95CF83460500834725009207AA
:1015700093F7F70F37E700E036972300F7405C4119
:10158000B5C703470500935757008546B396E60055
:10159000938707048A0737E700E0BA9794C38280ED
:1015A000B7E700E0BC47898BF9FB03471500854787
:1015B000630FF7008346050083472500920793F7E2
:1015C000F70F37E700E036972300F7404DBF83461B
:1015D000050083472500920793E707F893F7F70F75
:1015E00037E700E036972300F74051BF0347050077
:1015F000935757008546B396E600938707068A07F8
:1016000037E700E0BA9794C38280B7160240DC4205
:1016100051777D17F98F5D8DC8C28280B717024060
:10162000DC43B18B11476384E70821476387E708F0
:1016300099C7B7177A00938707201CC131A0B71745
:101640007A00938707201CC1371602405C429183C1
:10165000BD8B3707002013070700BA9783C6070022
:101660001C41B3D7D7005CC15442A1829D8ABA966F
:1016700083C60600B3D6D70014C55442AD829D8AF6
:10168000369703470700B3D7E7005CC55842398354
:1016900093763700370700201307870F36970347E5
:1016A00007001377F70FB3D7E7021CC98280B7177B
:1016B0007A00938707201CC141BF371702405C4363
:1016C0005843C983BD8B89079316F70063CA060088
:1016D00037173D0013070790B387E7021CC1ADB76A
:1016E0003717024058439316E70063DA06003717AE
:1016F0003D0013070790B387E7021CC1B1B7371746
:101700007A0013070720B387E7021CC135BF99C5CC
:10171000371702405C4B5D8D48CB8280B717024083
:10172000D84B1345F5FF798DC8CB828099C5371703
:1017300002401C4F5D8D08CF8280B7170240984F42
:101740001345F5FF798D88CF828099C53717024000
:101750005C4F5D8D48CF8280B7170240D84F13454C
:10176000F5FF798DC8CF828099C5371702405C4755
:101770005D8D48C78280B7170240D8471345F5FFF3
:10178000798DC8C7828099C5371702401C4B5D8D83
:1017900008CB8280B7170240984B1345F5FF798D2F
:1017A00088CB8280411106C6B73701406301F5023C
:1017B000B7470040938707806302F502B7470040B0
:1017C000938707C06303F502B240410182808545DB
:1017D0000565593F81450565413FFDB78545116563
:1017E0005D37814511654537C5B785452165613F41
:1017F00081452165493FC9BF035705008D67938720
:1018000007047D8F83D7050083D62500D58F83D627
:101810004500D58F83D66500D58F83D68500D58FBB
:1018200083D6A500D58F83D6C500D58F83D6E50096
:10183000D58FD98F2310F5000357C501FD77938706
:10184000F77FF98F231EF50083D705012318F500D4
:10185000828081C98357050093E707042310F500B0
:10186000828083570500C207C18393F7F7FBC20745
:10187000C1832310F5008280411106C622C4B73708
:101880000140938707C06306F502B7070040630C69
:10189000F502B707004093870740630DF502B717BD
:1018A000004093870780630EF502B2402244410155
:1018B000828085450564130504807D3581451305C7
:1018C00004805D35DDB785450545753D8145054598
:1018D0005D3DE1BF854509457D3581450945653556
:1018E000E9B785451145453581451145693D75BFC8
:1018F00083570500C207C18337370140130707C06C
:101900006300E504370700406307E5061307074057
:101910006303E5063717004013070780630DE504EE
:1019200093F7F7CF03D76500D98F2310F50083D73E
:1019300045002316F50283D705002314F50285A080
:1019400093F7F7F803D72500D98F93F7F7CF03D78D
:101950006500D98F2310F50083D745002316F502C3
:1019600083D705002314F50203C78500B73701406C
:101970002398E7C22DA093F7F7F803D72500D98F56
:1019800093F7F7CF03D76500D98F2310F50083D7DE
:1019900045002316F50283D705002314F502854779
:1019A000231AF500828083570502C207C183F99B81
:1019B000C207C1832310F50283570502C207C18302
:1019C00083564500C206C182035785014207418301
:1019D0001377C7F803D60500518FF59B03D6850012
:1019E00003D8250033660601D18F37360140130630
:1019F00006C0630DC5002312D500231CE50003D7E4
:101A00006500231AE5022310F5028280DD9B03D6D0
:101A1000A500D18FED9B03D64500D18F93F6F6CF6D
:101A200003D6C50003D8E50033660601D18EE1B7C1
:101A300083570502C207C183BD9BC207C183231020
:101A4000F50283570502C207C183035645004206CB
:101A500041828356850165771307F7CF758F83D64B
:101A60000500A206558F4207418393F7F7FD03D87F
:101A7000850083D62500B3E606019206D58FC207FE
:101A8000C183B7360140938606C0630DD50023128B
:101A9000C500231CE50003D76500231CE5022310C5
:101AA000F502828093F7F7F783D6A5009206D58FCB
:101AB000C207C18393F7F7FB83D645009206D58F03
:101AC000C207C183FD769386F63F758E03D8C500A5
:101AD00083D6E500B3E606018A06558E42064182AA
:101AE0007DB783570502C207C18393F7F7EFC2079B
:101AF000C1832310F50283570502C207C183035631
:101B00004500420641820357C501420741831377CE
:101B1000C7F883D60500558F93F7F7DF03D8850004
:101B200083D62500B3E60601A206D58FC207C1837E
:101B3000B7360140938606C0630DD5002312C50059
:101B4000231EE50003D76500231EE5022310F502DE
:101B50008280FD769386F67FF58F83D6A500A20658
:101B6000D58FC207C18393F7F7BF83D64500A2067E
:101B7000D58FC207C183F576FD16758E03D8C500D3
:101B800083D6E500B3E606019206558E42064182F1
:101B900075B703570502FD77FD17F98F2310F5027E
:101BA0000358050203564500420641828357C5018A
:101BB00065771307F7CF7D8F83D60500A206558F73
:101BC00042074183F977FD17B3F7070103D8850072
:101BD00083D62500B3E60601B206D58FC207C183BE
:101BE000B7360140938606C0630DD5002312C500A9
:101BF000231EE50003D765002310E5042310F5023A
:101C00008280F176FD16758E83D6C5009A06558EB4
:101C100042064182E1BF81C98357050093E717005F
:101C20002310F500828083570500C207C183F99B0A
:101C3000C207C1832310F500828081C98357450400
:101C40002167D98F2312F504828083574504C60784
:101C5000C5832312F504828019C68357C500DD8D24
:101C60002316B50082808357C50093C5F5FFFD8D0F
:101C70002316B50082808357850093F7F70FA206DD
:101C80004D8ED18ED58FC207C1832314F50082807B
:101C9000411106C622C42A84F93F8357840093E782
:101CA00077072314F400B240224441018280835715
:101CB0008500C207C18393F7F7F8DD8D2314B500C3
:101CC000828083578501C207C183DD9BDD8D231C84
:101CD000B500828003578501FD779387F77FF98FE1
:101CE000A205CD8FC207C183231CF50082808357D4
:101CF000C501C207C183DD9BDD8D231EB500828037
:101D00000357C501FD779387F77FF98FA205CD8F24
:101D1000C207C183231EF500828083578501C20755
:101D2000C183ED9BDD8D231CB50082808357850127
:101D3000C207C18393F7F7BFA205CD8FC207C18346
:101D4000231CF50082808357C501C207C183ED9B28
:101D5000DD8D231EB50082808357C501C207C18374
:101D600093F7F7BFA205CD8FC207C183231EF500ED
:101D7000828083578500C207C183E19BC207C1836C
:101D80002314F50083578500DD8D2314B500828070
:101D900083578500C207C18393F7F7F7C207C18352
:101DA0002314F50083578500DD8D2314B500828050
:101DB000835705010355C50042054181ED8F89C751
:101DC0006D8D3335A00082800145828093C5F5FF7B
:101DD000C205C1812318B5008280411106C6B747EC
:101DE000014093870780630BF502B7470040938754
:101DF0000740630EF502B7570040938707806303DF
:101E0000F504B7570040938707C06308F504B75738
:101E10000040630FF504B2404101828085451165A1
:101E2000EFF09F9481451165EFF01F94EDB7854564
:101E300037050200EFF03F95814537050200EFF0CE
:101E40009F94D1BF854537050400EFF0DF938145AE
:101E500037050400EFF03F937DBF85453705080047
:101E6000EFF07F92814537050800EFF0DF9165B70D
:101E7000854537051000EFF01F91814537051000AB
:101E8000EFF07F9049BF797106D622D426D22A84FA
:101E9000AE8403570501F577FD17F98F03D7650069
:101EA000D98F2318F5000357C500FD779387379F17
:101EB000F98F03D74500D98F03D78500D98F03D772
:101EC000A500D98F2316F50083574501C207C183AA
:101ED00093F7F7CF03D7C500D98F231AF500680011
:101EE000EFF0CFF3B7470140938707806301F40613
:101EF00052478357C400C207C18763CC07049317B6
:101F00001700BA978E07BA9798400A07B3D7E70227
:101F100013074006B3D6E7029206B3F7E70203576A
:101F2000C400420741876340070492079387270351
:101F300013074006B3D7E702BD8BD58FC207C18315
:101F40002314F400B25022549254456182806247B7
:101F50004DB793171700BA978E07BA9798400607A0
:101F6000B3D7E70275B71397370013072703930713
:101F700040063357F7021D8BB367D700C1B781C93D
:101F80008357C5000967D98F2316F5008280035750
:101F9000C500F977FD17F98F2316F500828093F7B6
:101FA000F50F95830547B315B700638CE7008946A5
:101FB00013074501638AD70019CA1C43DD8D0CC382
:101FC00082801307C500CDBF13070501F5B71C4379
:101FD00093C5F5FFFD8D0CC3828093F5F51F231289
:101FE000B5008280035505006D8D3335A0008280D9
:101FF00093F7F50F958385463397B6006388D7022C
:1020000089466389D702835745017D8F03550500B3
:1020100093170501C183014509CBA1810545B3157E
:10202000B50033F5B7003335A00082808357C50073
:102030007D8FE9BF835705017D8FC9BF011106CE92
:10204000A307A10085461306F100B2850545EF10F0
:1020500050390345F100F24005618280011106CE3E
:1020600022CC26CA4AC84EC6AE8493573600F18B9E
:10207000356713074749BA9703A907000544331486
:10208000C40042044180232A8900136505087D3776
:1020900026856D37232889000545EF103038232A1F
:1020A00089000145613FAA890145493F23288900EC
:1020B000338534413335A000F2406244D244424972
:1020C000B24905618280411106C622C426C24AC0B7
:1020D0002E8993573600F18B356713074749BA9716
:1020E000844305443314C40042044180C0C81365CE
:1020F0000504A9370145993780C80545EF1010320E
:10210000C0C80145253F2300A9000145053F80C8FF
:10211000B24022449244024941018280411106C6E4
:1021200022C426C2AE840564098C42044180120494
:10213000420441802E869375040F0145053726869B
:10214000935584000545193FB24022449244410111
:102150008280411106C622C426C24AC09357350068
:10216000F18B356713074749BA9703A90700054460
:102170003314A40042044180232A890001457D3D97
:102180009384C18422052390A4000145453D83D753
:102190000400C98FC207C183232889009983239033
:1021A000F4009386418503D706001D8F1377F73F10
:1021B0002390F60013151700137505403305A7404B
:1021C000B24022449244024941018280411106C634
:1021D00022C426C24AC093573500F18B35671307D6
:1021E0004749BA9703A9070005443314A4004204E1
:1021F0004180232A8900014591359384E184220599
:102200002390A40001451D3D83D70400C98FC20758
:10221000C1832328890099832390F40093866185E4
:1022200003D706001D8F1377F73F2390F600131591
:102230001700137505403305A740B240224492446D
:10224000024941018280411106C622C426C24AC009
:1022500093573500F18B356713074749BA9703A9A0
:10226000070005443314A40042044180232A890056
:102270000145E9339384018522052390A40001459B
:10228000753B83D70400C98FC207C1832328890007
:1022900099832390F4009386818503D706001D8FD0
:1022A0001377F73F2390F6001315170013750540B9
:1022B0003305A740B2402244924402494101828042
:1022C000411106C622C426C24AC093573500F18B7D
:1022D000356713074749BA9703A907000544331424
:1022E000A40042044180232A89000145813B938454
:1022F000218522052390A4000145893383D704005A
:10230000C98FC207C1832328890099832390F400D1
:102310009386A18503D706001D8F1377F73F23907F
:10232000F60013151700137505403305A740B2409A
:1023300022449244024941018280797106D622D416
:1023400026D24AD04ECE52CC56CAAA8923040100C6
:10235000A304010023050100930700FCA305F1007D
:10236000FD572306F100F147A306F100814A194900
:10237000714A31A84E869305F1004A85A933294553
:102380008145EF10500A8347F1006384470324001E
:10239000568405041374F40F4E8683C50400228509
:1023A000753929458145EF1010088504E31324FF92
:1023B000D1B7B250225492540259F249624AD24AD9
:1023C00045618280411106C622C42A84094881479A
:1023D0002A87930620021306100293050002054582
:1023E000EF10C06E2285913F228681452545BD3183
:1023F000A28501452533B24022444101828001116A
:1024000006CE22CC26CAB56783A4474905641304C7
:102410000480C0C82306A100A306B100894670004D
:10242000B2850545EF10E07B80C8F2406244D2449B
:1024300005618280011106CE22CC26CA4AC82E89A7
:10244000B56783A44749056413040480C0C81365B5
:1024500005F82306A10083C70500A306F1008946FD
:102460007000B2850545EF10C0778347D100230087
:10247000F90080C8F2406244D2444249056182803A
:10248000411106C622C426C2B56783A44749056424
:1024900013040480C0C8AE862A86AA850545EF10BD
:1024A000407480C8B24022449244410182800111AC
:1024B00006CE22CCA307010049449305F100130581
:1024C00050078D3F15458145EF10E0758347F100BA
:1024D000E39587FEF240624405618280011106CED9
:1024E00022CCA307010029458145EF10C07309489C
:1024F00081472D4793062002130610029305000220
:102500000545EF10A05C6537930500081305B0067C
:10251000FD3509458145EF10007113041004930542
:10252000F1001305B006393729458145EF10A06F3A
:102530008347F100E39587FE85451305B006C13555
:1025400081451305C006653D854569454D3D9D4561
:1025500065457535E1456D455D35C1457145453587
:102560008D457545693DF2406244056182800111E7
:1025700006CE930730FC2304F1009D45280009375F
:1025800083479100A2070347A100D98F239EF184BE
:102590008347B100A2070347C100D98F239FF1846D
:1025A0008347D100A2070347E100D98F2390F1862A
:1025B000F24005618280011106CE22CC26CAA30713
:1025C000A100B56703A4C749A16444C891675CC86A
:1025D000854601469305F1000145EF10806004C86F
:1025E000F2406244D24405618280011106CE22CCC1
:1025F00026CAA307A100B56703A4C749A16444C8BC
:1026000091671CC8854601469305F1000145EF100E
:10261000405D04C8F2406244D244056182800111E9
:1026200006CE22CC26CAB56703A4C749A16444C814
:10263000935785002306F100A306A10091671CC8EB
:10264000894601466C000145EF10A05904C8F240CC
:102650006244D24405618280011106CE22CC26CA92
:102660004AC84EC6AA89AE84328936841305A002B0
:10267000993713858902420541815537130589022F
:1026800042054181693F1305B00235371385540374
:1026900042054181693713055403420541814137A1
:1026A0001305C002093FF2406244D2444249B24994
:1026B00005618280011106CE22CC26CA4AC84EC6C8
:1026C000AA84930660081306F00E81450145693718
:1026D0001309000F9309700839A07D194209135995
:1026E0000901630A09004E842685153F7D144204C2
:1026F00041807DF8DDB7F2406244D2444249B2499C
:1027000005618280411106C622C426C20148814764
:102710001307F00493063002054681450145EF108A
:10272000E03A930600310546854513050008EF00A1
:10273000D02D93060031014685451305E004EF00D6
:10274000D02C93060031014685451305D004EF00D7
:10275000D02BB56703A4C749896444C81305800C0E
:102760008145EF10404C04C8130540068145EF1029
:10277000804B130560038135130540068145EF103A
:10278000804A1305000795351305A0032D3515451F
:10279000A93D1305200B05353145813D3145B13546
:1027A0000145A13513053003893513053003353D47
:1027B0001305700B093513055003053D1305B00BC8
:1027C000DD3B1305700315351305000CED331305C0
:1027D000C002213D1305200CF93B05453935130591
:1027E000300CD13B494511351305400CE933130535
:1027F0000002E53B1305600C7D3B3D45FD331305B1
:10280000000D553B1305400ACD331305100AF13B6B
:102810001305000E4D331305000DC13B1145F13377
:102820003545E1334545D1334D45C1331305B0023C
:102830006D3B1305F003553B130540057D33130530
:10284000C004653361455533354545332D45713BEE
:102850007D45613B13053002493B1305100EA13B3A
:102860001305000D5933114549333145BD3B4545ED
:10287000AD3B4D459D3B1305C002853B1305F00361
:10288000AD3313054004953313051005B93B13050B
:10289000F002A13B7D45913B7D45813B1305000244
:1028A000A93313053002913313051002293345452E
:1028B0001933130580078145EF10E03613059002A8
:1028C000DD3941657D15FD33B2402244924441011A
:1028D0008280797106D622D426D24AD04ECE52CCEE
:1028E00056CA5AC85EC662C466C22A8C1206930AC9
:1028F00006E0B567938707E63389FA00930A090172
:10290000B3852541939B050193DB0B01130B7500E8
:10291000420B135B0B01A14CC169138AF9FF938928
:1029200009801DA05285EFF09FCF85807D14137420
:10293000F40F01C893F71400F5D74E85EFF03FCEA2
:10294000EDB70509630F5901B3852B01C205C1819C
:10295000AE865A866285EFF03FD0834409006684D4
:10296000D1BFB250225492540259F249624AD24A1B
:10297000424BB24B224C924C45618280797106D613
:1029800022D426D24AD04ECE2A842E89B284634ADB
:1029900006089205C205C181130600021D3F896722
:1029A00093870771B3C7F4022304F1001307803E35
:1029B00033C7E402A9473367F702A304E100130712
:1029C000400633C7E4023367F7022305E10033C74B
:1029D000F4023367F702A305E100B3E4F40223062F
:1029E00091001209420913590901240021044204EB
:1029F00041809309D10003C6040013060603620652
:102A00006186CA852285F13585042104420441800E
:102A1000E39334FFB250225492540259F249456173
:102A200082809205C205C1811306D0025D35B304D0
:102A30009040C204C184A5B7411106C622C41384C4
:102A400071868345040093874186BE950545EF1046
:102A5000004383470400850793F7F70F2300F40032
:102A60000547638EE7000D476397E700A383018660
:102A700005472384E186B24022444101828003C796
:102A800041869307500AE308F7FEA3830186E5B762
:102A9000797106D622D426D24AD04ECEAA89238472
:102AA00001862E8493844502130950FA23062101DE
:102AB00083570400A306F1000317240093170701AE
:102AC000C183A1832307F100A307E10011466C0035
:102AD0004E85EF10E03109458145EF10C014110417
:102AE000E31694FC9387818683C7070093F7F70F5B
:102AF000F5DB238401869387418603C7170083C6CD
:102B000027009307F00F6310F700E39EF6FEB25024
:102B1000225492540259F24945618280397106DE8D
:102B200022DC26DA4AD84ED652D456D25AD05ECEBD
:102B3000AA8BAE84138B0502930A50FA455A138967
:102B4000418623065101A3064101A689039704008B
:102B500093170701C183A1832307F100A307E100B5
:102B600011466C005E85EF10A0289387818683C78D
:102B7000070093F7F70FF5DB938781862380070023
:102B800083471900A20703472900D98F2391F90031
:102B90009104E39864FBF2506254D2544259B25902
:102BA000225A925A025BF24B21618280411106C681
:102BB00013068004B1450545EF00007C85460146BB
:102BC00085455D45EF009001B24041018280411191
:102BD00006C6B1450145A523B2404101828041119D
:102BE00006C622C426C2130470049304000491464E
:102BF000014681452285112D7D14E31A94FE8966D4
:102C0000938606C203A64187B7150140A105370583
:102C10000240130545043521854601468145794525
:102C2000EF00C07BB24022449244410182804111B6
:102C300006C622C426C2B7070020054723AEE70E0A
:102C4000B70700209387072823AAF186C546414687
:102C50008965938505580545EF10200A854505458A
:102C6000EF10201C1384818623000400B704002089
:102C70009385040105455D3523000400B705002058
:102C8000938505030545EFF0BFE02300040093851D
:102C9000040105456135A1371D3F093FB24022447B
:102CA000924441018280B70702400967130707C2B7
:102CB000B8C7F84313671700F8C38280411106C6EE
:102CC00005472381E186B7060240FC424167791738
:102CD000F98FFCC203A58184EF108058B2404101F6
:102CE0008280011106CE22CC26CA4AC84EC6B567DC
:102CF00083A4C749114798C8A147DCC8D8C89CC855
:102D000098C8DCC837240020130404EA930904108F
:102D1000114923AA240181452945952C2310A4009B
:102D200023A824010904E31634FF0547A384E186A0
:102D3000F2406244D2444249B24905618280B5679B
:102D400083A7874F03D647009386018783C7060072
:102D50001387C1863E972300C700850793F7F70FB7
:102D60002380F6000547638BE7000D476397E70074
:102D7000238801860547A387E186828003C7C18631
:102D80009307500AE30BF7FE238801868280B7077A
:102D90000240056713070796B8C7F8431367170083
:102DA000F8C3828005472385E186B7060240FC42CE
:102DB00041677917F98FFCC28280411106C62DC583
:102DC0008547630AF5068947630DF5068D4763005D
:102DD000F50891476303F50895476306F508994799
:102DE0006309F5089D47630CF508A147630FF508D3
:102DF000A5476303F50AA9476307F50AAD47630BC7
:102E0000F50AB147630FF50AB5476303F50CB947F7
:102E10006307F50CBD47631DF500814601468145FA
:102E200013055004DD2629A0814601468145F12E77
:102E3000B240410182808146014681450545F12627
:102E4000C5BF8146014681450945C126D5B78146A2
:102E5000014681450D45552EE1BF8146014681451C
:102E600011456526F1B78146014681451545712E0C
:102E7000C1B78146014681451945412E55BF81465E
:102E8000014681451D45512665B78146014681456C
:102E9000130500029D2E69BF814601468145130539
:102EA0001002A52671B7814601468145130500042D
:102EB000A92EBDBF81460146814513051004B126E8
:102EC00085BF814601468145130520043D2E8DB7FF
:102ED00081460146814513053004052E91BF814688
:102EE00001468145130540040D2699B7797106D630
:102EF00022D42A84854513054020EFE03F832285B4
:102F0000EFF0BFEB03A78187B7C70105938707D011
:102F100063FBE7063165EFE04FEF3724014013050F
:102F20000440EFE0AF8502C402C602C8B7070E0036
:102F30003ECA02CC8547230EF1002C001305044045
:102F4000EFE04F86854513050440EFE0AF8A130597
:102F50000440EFE06F8B130404402285EFE06F8B99
:102F60006DFD3725014013050540EFE00F8B372439
:102F70000140130404402285EFE0CF8A6DFDB2507A
:102F80002254456182802165EFE02FE879B7411135
:102F900006C622C426C2AE84814605469375F50F47
:102FA0003724014013050440EFE04F888327844015
:102FB00037075000D98F2324F44037270140832757
:102FC0000740898BEDDFB727014003A5C744335580
:102FD000950042054181B2402244924441018280E1
:102FE000011106CE22CC26CA4AC84EC652C42A8A2D
:102FF000AE8932898144014415C6CE855285413F50
:10300000AA9405041374F40FE31989FE33D58402DE
:1030100042054181F2406244D2444249B249224AC7
:1030200005618280B7D60000938606463566130692
:1030300006459305600737D5000013058546EF80E8
:10304000D0255D7186C6A2C4A6C2CAC04EDE2A843F
:10305000AE893289B684B7070240A1076308F50834
:10306000B7070240F1076303F508B70702409387EB
:103070000703630DF506B70702409387470463070C
:10308000F506B7070240938787056301F506B70782
:1030900002409387C706630BF504B7070240938786
:1030A00007086305F504B707024093878740630A62
:1030B000F502B70702409387C7416304F502B707DB
:1030C000024093870743630EF500B70702409387DA
:1030D00047446308F500B707024093878745631BA1
:1030E000F50085450945EFE08FE229A085450545B6
:1030F000EFE0EFE12285EFD01FFF4EC24AC402C6C7
:1031000026C802CA930700083ECC02CE02D002D2E3
:103110008D673ED402D64C002285EFE00F94054621
:1031200089452285EFE06F9885452285EFE06F960F
:10313000B640264496440649F259616182800111E5
:1031400006CE22CC26CA2A84AE8485450545EFE00A
:10315000EFDD51C48547630BF4088947630DF4081C
:103160008D47630FF40891460146814526857128F5
:10317000FD572314F100231201002315010023132E
:103180000100230601000A04B5679387474A3E946D
:1031900000404C002285EFE0AFF581462166814575
:1031A0002285EFE0FFAE930500072285EFE03FB0F8
:1031B00091452285EFE0FFBB930500082285EFE0F3
:1031C0003FBD85452285EFE01FA505469165228517
:1031D000EFE09FA8F2406244D244056182808545B9
:1031E000056513050580EFE06FD4B5BF854505453E
:1031F000EFE0AFD58DBF85450945EFE00FD5A5B709
:1032000085451145EFE06FD4B9BF13070008630689
:10321000E510797106D622D426D24AD04ECE52CCB1
:103220009357550013F977001374F501368AB28964
:10323000AE848DCB05476389E7060947638BE706B4
:103240000D47638DE70611476380E70815476383E1
:10325000E7081947639CE700854513050010EFE078
:10326000EFCC29A085451145EFE04FCC854733943D
:10327000870042044180231281006383F406937621
:10328000FA0F36C613172900B56793874749BA97CF
:103290004C008843EFE0EF92B2502254925402590E
:1032A000F249624A4561828085452145EFE00FC8B9
:1032B00075BF85454145EFE06FC74DBF8545130597
:1032C0000002EFE0AFC65DB7854513050004EFE0EF
:1032D000EFC569BF854513050008EFE02FC579B735
:1032E00093170A01C183A1839DE78D473EC493765E
:1032F000FA0F36C613172900B566938646493697E6
:1033000004434C002685EFE0CF8B4E86A2852685B0
:10331000EFE0CF9751B73EC4D9BF82809357550095
:103320009D8B7D890547638DE5008A073567130707
:103330004749BA97984385473395A70048CB828081
:103340008A07356713074749BA97984385473395E6
:10335000A70008CB8280135735009376C7013567E5
:103360001307474936971C43984785473395A7006D
:10337000798D3335A0008280011106CE22CC26CA79
:103380004AC82A84AE84328985450545EFE00FBAE4
:10339000CA86014681452285EFF03FE71355540068
:1033A0009375F4011375F50FEFE08F98854733940B
:1033B000870022C002C226C43EC60A85EFD0FFF3B2
:1033C000F2406244D244424905618280B7E700E09E
:1033D0007D5723A0E71823A2E7188280011106CEAB
:1033E0002304A100A304B1002305C10036C62800B0
:1033F000EFE0CF9637E600E01842B7270020FD76D1
:10340000F98E03A707FA558F23A0E7FA584293874E
:1034100007FA12071183D443558FD8C303C7870017
:1034200085476305F700F24005618280EFF01FFADF
:10343000DDBF411106C6930700206301F51E63F14D
:10344000A704930730216306F52263EBA70E9307C9
:1034500030206305F51E63F4A70C93071021630861
:10346000F51E63EFA71E93070021631CF512930658
:1034700080310146854513056004EFF01FD915A280
:10348000930710106302F51463FBA7029307001162
:10349000630CF51463F5A706930720116307F5166F
:1034A000636CF51493073011631DF50E930680319C
:1034B000014685451305B002EFF03FD5DDA08947F1
:1034C0006304F50E63F1A7028D476307F50E9307BA
:1034D00000106318F50C93068031014685450145BF
:1034E000EFF0BFD27DA85DC58547631CF50A930642
:1034F0008031014685452545EFF03FD15DA093071A
:103500002010630BF50C93073010631CF50893062D
:103510008031014685450D45EFF03FCF59A0930717
:1035200010206305F51093072020631CF506930611
:1035300080310146854513050002EFF01FCD95A0AF
:10354000930700306309F51463F5A7029307203051
:103550006305F516636AF514930730306313F504B9
:10356000930680310146854513059002EFF0FFC9AF
:103570000DA8930700226307F5109307102263122A
:10358000F502930680310146854513055002EFF0A0
:10359000DFC701A893068031014685452145EFF03C
:1035A000DFC6B240410182809306803101468545E5
:1035B0002945EFF09FC5F5B7930680310146854553
:1035C0002D45EFF09FC4F1BF93068031014685453C
:1035D0000545EFF09FC3F1B793068031014685455D
:1035E0000945EFF09FC275BF9306803101468545BE
:1035F0003D45EFF09FC175B7930680310146854583
:1036000013053002EFF07FC069BF93068031014699
:1036100085451305A002EFF05FBF61B793068031C7
:10362000014685451945EFF05FBEA5BF9306803181
:10363000014685451D45EFF05FBDA5B79306803176
:103640000146854513051002EFF03FBC99BF930674
:1036500080310146854513057004EFF01FBB91B71B
:10366000930680310146854513058004EFF0FFB9CC
:103670000DBF930680310146854513059004EFF098
:10368000DFB805B793068031014685451305400232
:10369000EFF0BFB739B79306803101468545130572
:1036A0006002EFF09FB6F5BD930680310146854577
:1036B00013057002EFF07FB5EDB59306803101463A
:1036C000854513058002EFF05FB4E1BD397106DE78
:1036D00022DC26DA4AD84ED652D4AA842E8A3289DF
:1036E000EFF03FD593D984009397290035671307EE
:1036F000474ABA9780432285EFE00F98638D090C03
:1037000085476381F90E89476386F9108D47638980
:10371000F91285450545EFE06F81B7170240DC439C
:10372000C983BD8B37177A0013070720B387E702D9
:103730003727F40013070740BA9723ACF18633D735
:103740004703418393051700B3854503B3D7B702F9
:103750009386F7FF231CD100231AE100231D0100EB
:10376000231B0100230E0100130700072312E100B1
:1037700005472313E10023140100C207C183B38767
:103780002703096713070771B3D7E7022315F10071
:1037900089472316F1002317F1002318010023198C
:1037A00001004C082285EFE0AF948D88F9C0854771
:1037B000638DF40E89476388F4104C002285EFE096
:1037C0004FBDA1452285EFE0AFD393050040228590
:1037D000EFE08FD85DA88545056513050580EFD01E
:1037E000FFF405BF85450545EFD03FF68545054506
:1037F000EFD0DFF393D7440041476388E7044547A0
:10380000E39DE7F085453705180013050530EFD037
:103810009FC821B785450945EFD03FF3854505454C
:10382000EFD0DFF093D74400130710026397E7024D
:10383000854537151A00130505C0EFD0DFC5F1BD6A
:1038400085451145EFD07FF0E9B585453705160070
:1038500013050504EFD03FC4C9B513072002E39E4A
:10386000E7EA854537151A0013050580EFD0BFC27A
:103870006DB54C002285EFE00F93A1452285EFE066
:103880004FC491452285EFE04FC985452285EFE081
:103890008FB885452285EFE04FBAF2506254D2547A
:1038A0004259B259225A216182804C002285EFE0B0
:1038B0002F98A1452285EFE0EFC1930500402285B6
:1038C000EFE0CFC6D9B74C002285EFE08FA1A1452C
:1038D0002285EFE0CFC191452285EFE0CFC675B7D5
:1038E0001357850093172700B5669386464AB69707
:1038F0009C4383D7C702B385F50289679387077115
:10390000B3D5F50201EF0D89B75700109387D7B0F3
:103910003E950A05C205C1810CC1828085476309B5
:10392000F70089476300F7028D476308F70282803A
:103930000D89B7070010B5073E950A05C205C1817C
:103940000CC182800D89B70700109387D7103E9570
:103950000A05C205C1810CC182800D89B70700101C
:103960009387D7203E950A05C205C1810CC1C1B716
:10397000411106C622C426C24AC0AE8432843689AA
:103980002DCDC1476303F508930700026318F508BE
:1039900093068031054685451305D002EFF0FF867A
:1039A0008547638CF408C5476381F40A93071002C6
:1039B0006396F40A93068031054685451305F002A7
:1039C000EFF0BF848947630AF40AC947630FF40A1A
:1039D000930720026304F40C930730026319F40C7C
:1039E00093060031054685454A85EFF01F82B240B7
:1039F0002244924402494101828093068031054667
:103A000085451545EFF07F8061BF930680310546FF
:103A1000854513053002EFF04FFF59B7B7D60000C8
:103A20009386464C35661306464B9305D00237D530
:103A300000001305854CEF80400693068031054653
:103A400085451D45EFF06FFCB5BF930680310546F7
:103A5000854513055002EFF04FFBADB7B7D6000018
:103A60009386464C35661306464B9305200337D59F
:103A700000001305854CEF80400293068031054617
:103A800085451945EFF06FF8A1BF930680310546D3
:103A9000854513054002EFF04FF799B79306803143
:103AA000054685451305E002EFF02FF615BFB7D6A2
:103AB00000009386464C35661306464B93058003FB
:103AC00037D500001305854CEF70307D397106DE67
:103AD00022DC26DA4AD84ED652D456D25AD02A847C
:103AE000AE89328AB68A3A8BBE84428949C58547F7
:103AF000630DF508DA865686D2854E85EFF05FE7CE
:103B000023160100930740102317F100231801002A
:103B100085476380F40A93978401E187D1C7894779
:103B2000638FF4088D476382F40A93070020231BF8
:103B3000F1000E09231C2101231D01009D47231EB6
:103B4000F1000A0413850182229500416C00228550
:103B5000EFD09FCAC1476381F90885452285EFD020
:103B60005FCFF2506254D2544259B259225A925AFB
:103B7000025B2161828037350140EFD0BFC28545AD
:103B800005650505EFD09FBAB5B737450040130569
:103B90000580EFD03FC185451165EFD01FBB85453E
:103BA0000545EFD0BFB8B9B723190100231A0100AA
:103BB000ADBF231901008547231AF100BDB789471E
:103BC0002319F100231A01008DB789472319F10049
:103BD0008547231AF10091BF85450545EFD0BF8B7E
:103BE000ADBFAE96938701820A053E956387B60204
:103BF0008505184183C7F5FF2316F7008357870013
:103C0000898BEDDF65D683578700858BEDDF835782
:103C1000C7002300F6000506D1BF82807D1542054E
:103C200041816DFD8280411106C6EF10F03BB2402C
:103C300041018280411106C60DE585476385F50087
:103C4000B240410182809306803101468545254579
:103C5000EFF0AFDB9146014681452945EFF0EFDA01
:103C6000C5B789476309F502C1476306F5049307A1
:103C700000026310F5069306803101468545130561
:103C8000A002EFF08FD89146014681451305B0029E
:103C9000EFF0AFD775B79306803101468545130520
:103CA0006002EFF08FD69146014681451305700200
:103CB000EFF0AFD571B793068031014685450945D0
:103CC000EFF0AFD49146014681450D45EFF0EFD3BB
:103CD00085BF93072002E315F5F693068031014670
:103CE00085451305A004EFF04FD29146014681456A
:103CF0001305B004EFF06FD1A1B7797106D622D4C5
:103D000026D24AD04ECE52CC2A842E8A3289B68907
:103D100013172500B5679387474FBA9784432685C5
:103D2000EFE0AF8B85450545EFD05FA0CE854A8596
:103D3000EFF05FF089476301F902930720026310F7
:103D4000F90293073002639CF9008545370514009A
:103D50004105EFD04FF421A08D476385F90421C8B8
:103D60008547630BF4048947630EF40452C02312A1
:103D70000100231301002314010023160100B147A1
:103D80002315F1008A852685EFE0EF8F854526858E
:103D9000EFE0EF9EB250225492540259F249624A27
:103DA0004561828085451145EFD0EFEE4DBF8545D9
:103DB0001165EFD0BF975DBF854537050200EFD095
:103DC000DF986DB7854537050400EFD01F9879BFA0
:103DD0000A05B5679387474FAA979843835707000B
:103DE00093F70708E5DFC205C1812312B70082807F
:103DF00005CA411106C622C426C24AC02A892E8499
:103E0000B384C50005048345F4FF4A85EFF05FFCE9
:103E1000E39A84FEB24022449244024941018280E6
:103E20008280411106C622C426C22A84AE8413179A
:103E30002500B5679387474FBA97054693055052BB
:103E40008843EFE0CF95A6860146854513055403C8
:103E5000EFF0CFD8B24022449244410182800A055B
:103E6000B5679387474FAA9798438357070093F7FF
:103E70000702E5DF835747002380F50082800A05AB
:103E8000B5679387474FAA9798438357070093F7DF
:103E9000070299E301458280835747002380F5009C
:103EA0000545828003A5C1878280411106C693879C
:103EB000C1879843050798C3EF10C0763C41FD17B2
:103EC0003CC191C7EF10D039B240410182805C5DA6
:103ED0003CC1EF109001FDB7634205029307803E9D
:103EE0003347F5023307F7023365F5023305F50270
:103EF0001305753E3345F5023A9582807D558280E3
:103F00000145828001458280014582800145828091
:103F100039671307C711B96793870712637CF702E4
:103F2000411106C622C426C239649304C411B9677C
:103F30009387F711858FF19B9107BE941304C411E9
:103F40001C4082971104E31D94FEB2402244924427
:103F5000410182808280396713070712B96793870E
:103F60008712637CF702411106C622C426C2396457
:103F700093040412B96793877712858FF19B910799
:103F8000BE94130404121C4082971104E31D94FE96
:103F9000B24022449244410182808280411106C68F
:103FA000EFF07FFBEFC0BFEEB240410182804111D4
:103FB00006C6D1470947930600400146B7450000B1
:103FC0009385C5F937D5000013054550EF10E0651E
:103FD000EF10B007B24041018280411106C6EFC028
:103FE0002F96EF20102FEF00D059EF107030EF1008
:103FF000C031EFF0DFFBEF105030C128EF1000347C
:104000000145B24041018280411106C6EFF0FFFC3C
:104010000145B2404101828003A7818A9387818A4A
:10402000630FF708011106CE22CC26CA4AC84EC635
:1040300052C456C29389818A854A2DA02685EF10E5
:10404000402C630A5505EF1040465285EFC0AF8FF4
:104050004848EF1000072685EF10602783A7818A64
:1040600063863705EFC0CF8D2A8A83A7818A638D47
:10407000370303A4818A9304C4FE18405C405CC3E8
:10408000184098C340C000C0EF1020407C4CDDD7E2
:104090002685829765B72685EF10401AEF10E0401D
:1040A0005285EFC04F8A19A0EFC0EF89F2406244F9
:1040B000D2444249B249224A924A056182808280B2
:1040C000411106C6EFF05FF5F5BF411106C622C4E7
:1040D00037240020930800021D489307003037273B
:1040E0000020130747028146374600001306060CDE
:1040F000B7D500009385C5501305C4FAEF1080476B
:104100001305C4FAEF106074B2402244410182806A
:10411000411106C622C426C24AC02A843289B68406
:104120002E868945EF10600A930744011CCC5CC8B9
:10413000231E2401A30494000145B240224492446A
:10414000024941018280411106C622C426C2AE84C2
:104150003284AA850945EF10401109C9930745012A
:104160001CCD5CC9231E9500A3048500B2402244E7
:10417000924441018280797106D622D426D24AD057
:104180004ECE52CC2A842EC6EFB09FFBAA8983570D
:10419000C401A1E7B247A9CBEF10C048AA842328E5
:1041A000050213094401034A9400EF10005A630109
:1041B0000A0485476308FA04B2476348F0084E854D
:1041C000EFB07FF8EF10A01A8858B25022549254E2
:1041D0000259F249624A45618280FD17231EF400AC
:1041E000EFB07FF60145D5B7EFB0FFF57955F1BFD8
:1041F00093874401184C1CC3184C98CC1CCC23AAA0
:1042000024015DBF5C486308F90283C6540303C7F9
:10421000170263E9E6009C43630FF90003C7170226
:10422000E3FBE6FE13874401D44398C2D44394CC05
:10423000D8C3DCC851B793874401184C1CC3184C31
:1042400098CC1CCC23AA240185BF1384440470009D
:1042500081452285EF10C07C2285EF10806E85B7E6
:10426000411106C622C426C22A84EFB07FEDAA847B
:104270004848930744016300F5023115EF10E057F9
:104280002685EFB05FECEF10800E0145B24022446E
:104290009244410182808357C4018507231EF400A4
:1042A0002685EFB05FEAD5B7411106C622C426C203
:1042B0004AC0AE843289AA851545EF00107B2A8456
:1042C0001DC9A3042501930745011CCD5CC923101A
:1042D00095021395040141810A05EF00304848CC4E
:1042E00015C12311040223120402231304029307AD
:1042F00084025CD41CD42285B240224492440249F8
:10430000410182802285EF00907C0144EDB7397134
:1043100006DE22DC26DA4AD84ED652D456D25AD0FD
:104320005ECE62CC66CA2A842E8C32C6EF10802FF5
:10433000AA84EFB0FFE0AA8903572402835704023E
:104340006309F704035744025C4C0A07BA9723A099
:104350008701835744028507C207C1832312F402F1
:104360000357040263E4E700231204028357240284
:1043700085072311F402484851046307851231155B
:10438000EF10A0474E85EFB01FDCEF00507E0145D7
:1043900025A0B247814C89CB130A8402938A440139
:1043A000054B938B4404B9A8EFB0FFD9755529A0EC
:1043B0004E85EFB05FD97555F2506254D2544259D0
:1043C000B259225A925A025BF24B624CD24C216192
:1043D00082805C5423A057015C549CCC2326540358
:1043E00023AA4401B2476345F0084E85EFB0BFD51C
:1043F000EF00F077885869F1EFB09FD4AA89B247EF
:104400006344F0080357240283570402E31CF7F2C5
:1044100023A80402B247C9DF034994002685EF10A0
:10442000C032E30809FAE31F69FB1C546308FA026F
:1044300083C6540303C7170263E9E6009C43630F76
:10444000FA0003C71702E3FBE6FED8432320570117
:10445000D84398CC23A25701DCC869B75C5423A089
:1044600057015C549CCC2326540323AA44019DBFCE
:10447000EFF05FA3AA8C700081455E85EF10405A73
:104480005E85EF10004C95B7EFF0DFA13307954143
:10449000B247E6973385A740634505002AC6BA8C24
:1044A00095B702C6BA8CB9BF4E85EFB0DFC90145DA
:1044B00021B7411106C60146EFF07FE5B240410148
:1044C0008280397106DE22DC26DA4AD84ED652D4F2
:1044D00056D25AD05ECE62CC66CAAA842E8C32C620
:1044E000EF1040142A84EFB0BFC5AA8983D72402F5
:1044F000639C0710B247814C89CB138A4401930A0D
:104500004401054B930B44048DA0EFB0DFC37955F4
:1045100039A04E85EFB03FC3F9571CD87955F250FA
:104520006254D2544259B259225A925A025BF24B07
:10453000624CD24C216182809C4C23A057019C4C40
:104540001CCC23AC5401232A4401B2476342F00837
:104550004E85EFB05FBFEF009061085869F1EFB092
:104560003FBEAA89B2476341F00883D72402C9EF4E
:1045700023280402B247D1DF03C994002285EF103B
:10458000C01CE30B09FAE31269FDDC486308FA0278
:104590008346540303C7170263E9E6009C43630F95
:1045A000FA0003C71702E3FBE6FED84323205701B6
:1045B000D84318CC23A257015CC841BF9C4C23A010
:1045C00057019C4C1CCC23AC5401232A4401B5BF99
:1045D000EFF05F8DAA8C700081455E85EF1040443E
:1045E0005E85EF100036ADB7EFF0DF8B33079541F6
:1045F000B247E6973385A740634505002AC6BA8CC3
:10460000ADB702C6BA8C95B703D76402DC4C0A0773
:10461000BA979C432320FC0083D764028507C20716
:10462000C1832393F40203D7040263E4E7002393D6
:10463000040283D72402FD172391F4028854938443
:104640008402630C95003115EF10201B4E85EFB0EE
:104650009FAFEF00D0510145D9B54E85EFB0BFAE49
:10466000014575BD411106C6EFB09FAD13870188A6
:1046700083470700850793F7F70F2300F700EFB094
:104680009FACB24041018280411106C6EFB05FABE2
:104690001387018883470700FD1793F7F70F23005F
:1046A000F700EFB05FAAB2404101828041119378D8
:1046B0000804639F0802396F130F8F8093780801F5
:1046C000638C08021378E8FF9302000293782800B5
:1046D00063840804634B060293784800930FB0028A
:1046E000639D0802937F8800B33FF001960F35A0C9
:1046F000356F130F4F76D9B79378180093020003E4
:10470000E39608FC93020002D1B73306C040930F32
:10471000D0028148A94E81A8814F65FE930600030F
:104720002300D1008548468E63D3F8003E8E3307C0
:10473000C74193761801BDE263880F10635EE00EF7
:104740001303E7FF854663C5E6101A87FDA01373C0
:10475000F60011828508330E11017A93034303009A
:10476000A30F6EFE69D2E394D6FF3373D60333569C
:10477000D603CDB70507B306E6406357D000E37B09
:10478000B7FE2300D701FDB71307F3FF1346F3FF6E
:104790007D86B376C300158F85063695639F0F0817
:1047A00013780801631208029306F7FF6357E004C9
:1047B0002A9721A005056307E500E37DB5FE2300E8
:1047C0005500CDBF3A857D57B3061E41AA96130604
:1047D000000363CFC801AA86635F10038DCF4683B1
:1047E0000A8533061501B68739A80505E306D5FE07
:1047F000E37DB5FE2300C500CDBF3687F1B7850741
:104800007D166309A600E3FCB7FE0348F6FF23808C
:104810000701F5B79A963385E600930700026348CF
:10482000E0003685410182808506E38DA6FEE3FD2A
:10483000B6FE2380F600CDBF7D176374B50023005C
:10484000F5017D170505A9BF1303F7FF6359E000C4
:104850002A87930E0002130615001A960DB71A87C1
:1048600081B78D4763F9C700937735008DC713076C
:10487000F6FFAA8729A0AA871307F6FF01CE05072E
:104880003E978507A38FB7FEE39DE7FE8280BA8738
:104890004286DDB7828093F7F50F93968700D58F18
:1048A00093960701DD8EBD4763F1C704930706FFAA
:1048B000C19BC107AA972A8714C354C314C74107D1
:1048C000232ED7FEE39AE7FE1378F600318A61D2F1
:1048D0009307C8FFF19B9107BA971107232ED7FEC4
:1048E000E31DF7FE1376380041BF2A873288CDB723
:1048F00063E0A502B306C500AA8711CA850585072E
:104900000387F5FFA38FE7FEE39AD7FE82808280BC
:104910003387C500E370E5FEB307C50065DA7D1790
:10492000FD17830607002380D700E31AF5FE828077
:1049300009CEAA868505938716000387F5FFA38F06
:10494000E7FE09C77D16BE8675F682801307F6FF5F
:104950006DDF36968507A38F07FEE31DF6FE828086
:104960008307050089CBAA878507038707006DFFAA
:104970003385A7408280AA87E5BF5D7186C6A2C441
:10498000A6C2CAC04EDE52DC56DA5AD85ED662D40F
:1049900066D26AD06ECEAA8C2E8D368CB30AB50044
:1049A00063F5AA00134DF5FFFD5A83070600E6895B
:1049B00063820736930B50021309B0023567930DDB
:1049C000475141677D173AC409A885093284130607
:1049D000140083071400638F073263877701E3F6BF
:1049E00059FF2380F900D5B781441307D0029306FD
:1049F0000002930530021305000321A093E4040193
:104A000022861304160083071600E389E7FE638BF2
:104A10002701638CD700638DB700639EA70093E4E2
:104A20001400F9BF93E44400E1BF93E48400C9BFDC
:104A300093E40402F1B73E87938607FDA54563F62C
:104A4000D5041307A0027D5A6382E706030704001A
:104A50009307E0027D5B6309F7068307040013F602
:104A6000B7FF930680060147630CD60A834704000C
:104A70009387B7FD13F6F70F9306300563E8C6205A
:104A800093172600EE979C438287014AA5460504AA
:104A900093172A003E9A060A3A9A130A0AFD030758
:104AA0000400930707FDE3F4F6FE4DB71304260058
:104AB00093074C00032A0C003E8CE3590AF8330A92
:104AC000404193E4040159B713071400830714000D
:104AD000BE86938507FD25466379B6009306A0023E
:104AE0006386D7023A84014B8DBF014B05079317AC
:104AF0002B00DA978607B697138B07FD830607000E
:104B0000938706FDE374F6FE3A8429A00904032B7B
:104B10000C00110C9347FBFFFD87337BFB0035BF77
:104B200013F7F70F050499B7C14641AAC1889DC084
:104B300093064C0063F6590183270C002380F9008B
:104B40009387190005476351471D52864E9A1307F4
:104B500000020DA89307FAFF6351F002CE971307E6
:104B6000000221A0850963873701E3FD59FF2380F7
:104B7000E900CDBFBE89014A65BF3E8A55BF8507A2
:104B800063874701E3FD57FF2380E700CDBFB2995C
:104B9000368C35BD93074C003EC6032C0C006301D8
:104BA0000C026285EFF0DFDB635560016353AB00FD
:104BB0005A85C18899C86350A006B387A900A9A0E7
:104BC000B7E70000138C0780E9BF9306FAFF63572D
:104BD0004503D2852A87B307AA40CE971306000261
:104BE00021A085096387F900E3FD59FF2380C900EF
:104BF000CDBF330AB740369ABE8975BF368A65BFC6
:104C00008509050C638AF900E3FC59FF03070C00D2
:104C10002380E900F5B7CE87635B450F3305AA40D3
:104C2000B389A7001307000221A085076387370116
:104C3000E3FD57FF2380E700CDBF324C49BBFD5752
:104C40006302FA0293074C003EC62688DA87528731
:104C5000C14603260C00D6854E85EFF03FA5AA89F4
:104C6000324CB5B393E41400214AE9BF63F659010D
:104C7000930750022380F900850991BB93E4040453
:104C8000C14625A893E42400A94605A863F6590166
:104C9000930750022380F90013871900830704004B
:104CA00099C763745701A380F90089090DB37D1476
:104CB000BA8931BBA94611A0A1469307C006630279
:104CC000F702930780066302F70203260C00110C1B
:104CD0002688DA875287D6854E85EFF03F9DAA89D0
:104CE000FDB103260C00110CE5B793074C00032619
:104CF0000C0013F7240009E72247798E3E8CC9BFC8
:104D0000420641863E8CE9B7368CBE89C9B1324C29
:104D1000BE8975B963060D0063F559032380090048
:104D200033859941B640264496440649F259625A61
:104D3000D25A425BB25B225C925C025DF24D6161D1
:104D40008280A38F0AFEE9BF397106CE22CC2ED213
:104D500032D436D63AD83EDA42DC46DE541036C675
:104D6000372400202A869305F00713054432EFF01C
:104D7000DFC013054432EF107067F24062442161D6
:104D80008280411106C637D5000013058577EFF004
:104D9000BFFB37D5000013054578EFF0FFFA37D792
:104DA00000001307877A8D4605468D4537D50000EC
:104DB0001305457BEFF05FF937D500001305457DFE
:104DC000EFF09FF8B240410182800DC59377F50F57
:104DD0009DE3C167938707F0E98F95E7B707FF0069
:104DE000E98F8DEF6181B567938747663E950345EF
:104DF000050065058280356713074766BA9703C5C6
:104E000007000505828021851375F50FB567938727
:104E100047663E950345050025058280418513754B
:104E2000F50FB567938747663E9503450500450531
:104E3000828003A781885C41BA976304F50283D618
:104E4000270085E283A64188638DF60083A6C1888A
:104E5000638BF602D44354C1DC43BA97B306E540F2
:104E600094C71445B307D700630EF50003D6270097
:104E700011EA03A6C188630BA6005041D0C35C4170
:104E80003E9714C7828023A6A188E9B723A6F1889C
:104E9000EDB7411106C683A5418937E5000013052A
:104EA0008582EFF07FEA83A5818937E5000013054D
:104EB000C583EFF07FE983A5018937E5000013057D
:104EC0000585EFF07FE8B24041018280411106C6BE
:104ED00022C413F7C5FFE14663F9E60093073500E6
:104EE000F19B930687FE63FEF6002E86AA8537E5C2
:104EF00000001305458CEFF03FE5B240224441012C
:104F000082801D8F130687FE23AAC188138481889F
:104F10001CC08966938606EA2390D7005117D8C330
:104F200023A4070023910700BA9723A2F1882390B6
:104F3000D70085462391D700D8C398C78146054638
:104F4000B7E500009385C58B372500201305453A4A
:104F5000EFF00F9C184023A6E18845B7630A0512BD
:104F6000411106C622C426C293043500F19883A7D6
:104F7000418963E19712B14763F3F400B144FD55F1
:104F8000372500201305453AEFF0EF9E03A5C188B1
:104F900083A68188B307D54003A84189330698408A
:104FA00063E4C706372500201305453AEFF04FAB01
:104FB0000145B24022449244410182808547231139
:104FC000F400938781899043329798C383A701891E
:104FD00063F0E70A23A8E18861A883572500C5C3C9
:104FE00003A74188630DE50848413695835725009E
:104FF00091C7E31BA7FE23A6A18851A023A6A188E1
:10500000BDA85C40E3F0C7FA3384F60003572400E0
:105010006DFB58401D8F930547FFE3E495FE138613
:105020008401E3EDC5F81386C4003E963387C600BD
:105030008965938505EA2310B700231107004C40CA
:105040004CC31CC750C085472311F4005C43310892
:1050500063840701B69790C7138781891C43B10702
:10506000BE9404C383A7018963F4970023A89188A1
:105070008967938707EA2310F400E30085F6372554
:1050800000201305453AEFF0AF9D1305C40015B796
:1050900001458280014531BF411106C622C426C2A6
:1050A000B304B5022685EFF07FEB2A8409C5268676
:1050B0008145EFF00FFB2285B2402244924441012A
:1050C000828009C983A781886366F50083A7418828
:1050D0006363F5008280411106C622C426C22A8479
:1050E000930445FFFD55372500201305453AEFF0A1
:1050F0008F88835764FF81CB035744FF8967938769
:1051000007EA6303F70237E5000013050587EFF0B0
:10511000BFC3835644FF035664FFA68537E50000EE
:105120001305C588EFF05FC2231B04FE89679387D0
:1051300007EA231AF4FE83A7C18863F4F40023A6C8
:105140009188138781891C43832684FF958F83A6CA
:105150008188B386D440B6971CC32685EFF07FCDF7
:10516000372500201305453AEFF08F8FB2402244D7
:10517000924441018280AA87370700200327470510
:10518000630CE50237070020032747066302E502A8
:105190003707002003274707630EE5003707002085
:1051A0000327470801456303F70082800D4531A0BE
:1051B000054521A0094511A0014593174500370574
:1051C0000020130545053E95CDB7011106CE22CC32
:1051D00026CA4AC84EC652C4AA84AE89328A2E85CF
:1051E000EFF07FF92A8955248327490013044900E9
:1051F000638587009C43E39F87FE452C93E909F86C
:10520000238434012146D2852685EFF06FF2EFA08A
:105210003FF39387C400032749005CC30327490079
:10522000D8C42322F90080C8EFA0FFF1F240624405
:10523000D2444249B249224A05618280411106C6E0
:1052400022C42A8423040500EFA09FEF9307C40023
:1052500054441848D8C2544414C31CC85CC4EFA0BA
:105260009FEEB240224441018280011106CE22CC41
:1052700026CA4AC84EC6AA892E89EFF0DFEFAA8453
:105280004845EFF0BFCD2A841DC9D0448145EFF0D9
:105290004FDD23043401A30404002146CA8522857E
:1052A000EFF00FE9EFA0DFE99307C400D8405CC33B
:1052B000D84058C4DCC0910404C8EFA0DFE82285C0
:1052C000F2406244D2444249B249056182804111B0
:1052D00006C622C42A8423040500EFA07FE69307B4
:1052E000C40054441848D8C2544414C31CC85CC4F5
:1052F000EFA07FE52285EFF0DFDCB24022444101E0
:105300008280030585007D8182802392018AB727F0
:1053100000209387473C13870704DCC39CC3A10785
:10532000E39DE7FE1D47238EE18823A0018A23A881
:10533000018A9387818ADCC39CC38280411106C69F
:1053400003A5018BEFF07FA87D1593173500372556
:1053500000201305453C3E9508411307C5FE23A0D8
:10536000E18A2105EFA09FDEB24041018280411118
:1053700006C622C4EFA0DFDC2A848397418AB1E30A
:1053800003A5018BEFF07FA47D1513173500B72718
:1053900000209387473CBA978C439387C5FE03A7A9
:1053A000018A6300F702238EA18823A0F18A83C7B4
:1053B000018893F7F70F89CFA1051305C701EF0007
:1053C000C0782285EFA03FD8B240224441018280BC
:1053D000A1051305C701EF0000762285EFA0BFD617
:1053E000E5B7411106C622C42A84EFA07FD58347C2
:1053F0004403C19B93E71700230AF4028347540335
:105400009306440113973700B72700209387473C42
:10541000BA97D84314C3D84318CCD4C35CC8938775
:10542000018B185C9443558F98C3EFA0DFD1B24035
:10543000224441018280411106C622C42A84EFA081
:105440003FD0930744015448184CD8C2544814C361
:105450001CCC5CC88347540313973700B727002040
:105460009387473CBA9798436308F700EFA0BFCDF6
:10547000B2402244410182801387018B1C5C93C798
:10548000F7FF1443F58F1CC3D5B7411106C6EFA033
:105490003FCB9387418A03D7070005072390E70096
:1054A000EFA07FCAB24041018280411106C6EFA041
:1054B0003FC91387418A83570700FD17C207C18779
:1054C0002310F7006357F000EFA0FFC7B24041017F
:1054D00082802392018AEFA01FC783A7018AFDD78C
:1054E000EFF0FFE8E5B7411106C622C426C203A4C7
:1054F000018AEFA0FFC4AA842285EFF0DFF3914771
:10550000230AF40213054404C1262285EFF07FDF4D
:1055100085476307F5021307440183A6818AD8C231
:1055200054C823A4E18A9387818A1CCC2685EFA0E6
:105530009FC1EFF0DFE3B2402244924441018280F8
:105540003C58F1FB2285EFF07FCFCDB7411106C665
:10555000795718D9130745015049144D54C2504981
:1055600090C218CD58C9EFF0DFE7EFF05FE0B2402E
:1055700041018280011106CE22CC26CA4AC84EC6FD
:1055800052C456C25AC02A84328BB68ABA893E8A1D
:105590004289C6842E868545EFF03FC393074401B8
:1055A0001CCC5CC82320640323225403232434032B
:1055B000232644035286930530024E85EFF06FAAEE
:1055C0005C54F1171054B75600009386664E3E9611
:1055D0004C500850252348CC230B2403A30A240352
:1055E000232C040244DC24C023280402230A0402DE
:1055F00023280406232A040681470147A28637563A
:1056000000001306C654A28513054404BD240145B9
:10561000F2406244D2444249B249224A924A024B81
:105620000561828003A5018A8280011106CE22CC09
:1056300026CA4AC84EC652C456C2AE8A328AB684F8
:10564000BA893E89AA850545EFF03FC249CD2A8433
:105650002685EFF0BF9059C1930744011CCC5CC86C
:10566000232054032322440308D444D426869305DC
:105670003002EFF00F9F5C54F1171054B756000042
:105680009386664E3E964C5008508D2948CC230B8D
:105690003403A30A3403232C0402232E24032320DF
:1056A000240523280402230A040223280406232AAB
:1056B000040681470147A286375600001306C654E8
:1056C000A28513054404552A2285F2406244D2443F
:1056D0004249B249224A924A056182802285EFF00E
:1056E0001FBF0144D5B70144C5B7411106C6EFA09D
:1056F0003FA583A7018A03C747033D8B85466316F1
:10570000D700D44B984F6398E600EFA0DFA3014584
:10571000B2404101828013864701D8C2D44B14C3E2
:1057200090CFD0CB83C65703372700208E061307B0
:10573000473C3697544390C2544394CF50C3D8CB80
:10574000EFA07FA0EFF0BFC2D9B783474503BD8B61
:1057500005476390E704411106C622C426C22A8485
:10576000EFA01F9EAA8483474403C19B93E72700B1
:10577000230AF4022285EFF01FCC1305440485248C
:105780002685EFA05F9C0145B2402244924441012E
:1057900082807D558280011106CE22CC26CA4AC85D
:1057A0002AC6EFA0FF992A8903A4018A2285EFF077
:1057B000DFF99304440470008145268595242685ED
:1057C00049224A85EFA03F98EFF07FBA1858F95761
:1057D0006309F7000145F2406244D2444249056141
:1057E000828023280402FDB7411106C6EFE0CFEE08
:1057F000EFF07FFAB2404101828083474503BD8BC1
:1058000009476392E704411106C622C426C22A84CE
:10581000EFA01F93AA84930744015448184CD8C2A0
:10582000544814C31CCC5CC8130544044D2A268577
:10583000EFA07F912285EFF0DFBA0145B24022440C
:105840009244410182807D558280411106C6834683
:105850006503A30AD50205473317D70018DD0947AA
:10586000230AE502EFF07FF983A7018A99C3EFF0DD
:105870001FB00145B24041018280011106CE22CC09
:1058800026CA4AC84EC652C42A84328AB6893A8980
:10589000BE842E86A945EFF05F93F998A304940087
:1058A000232E44012320340323240402232224032F
:1058B000930744011CCC5CC8F2406244D244424984
:1058C000B249224A05618280411106C622C42A8457
:1058D000EFA01F87930744015448184CD8C254487E
:1058E00014C31CCC5CC8EFA01F862285EFF01F9567
:1058F0000145B240224441018280011106CE22CCF2
:1059000026CA4AC84EC6AE893289B6843A84AA8568
:105910002945EFF09F9519CD7998A3048500232E92
:105920003501232025032324050244D19307450193
:105930001CCD5CC9F2406244D2444249B24905617F
:105940008280411106C622C426C22A84EFA04FFFDE
:105950009304440158481C4C5CC3584898C304CC79
:1059600044C883479400F99BA304F400EFA0AFFD63
:10597000EFE04FD35C503E9508D4EFA06FFC9387C7
:10598000818BCC431387818B370800801348E8FF55
:1059900011A03687638CE5001443DC4A1054E38A77
:1059A000C7FE918F6374F8003687EDB79387418BFC
:1059B0009443850694C31C43C4C31C435CC804C3FE
:1059C00018CC8347940093E71700A304F400EFA0DA
:1059D0008FF70145B24022449244410182808347BF
:1059E0009500858B99E37D558280411106C622C4BE
:1059F0002A84EFA0EFF4930744015448184CD8C20E
:105A0000544814C31CCC5CC8EFA0EFF38347940048
:105A1000F99BA304F4000145B24022444101828075
:105A200085476385F50263DFB70089476384F50224
:105A30008D47639FF5008347950093E72700A304F4
:105A4000F50039A091E51C425CD119A05C511CC243
:105A50000145828083479500F59BA304F500CDBFE7
:105A6000011106CE22CC26CA4AC84EC652C456C21E
:105A7000EFE04FC32A8AEFA0AFECAA899384818B11
:105A8000B707008013C9E7FF8D4A8040631E94006A
:105A90004E85EFA04FEBF2406244D2444249B249F6
:105AA000224A924A056182805C48330AFA40E361E7
:105AB00049FF18405C405CC3184098C340C000C018
:105AC0001C4448448297EFE0EFBD2A8A834754FF85
:105AD00013F7370063065701F99BA30AF4FE75B765
